S00A0000626C652E733337B7
S214004000007C0020F98800001D5C00001D5C00009C
S2140040101D5C00001D5C00001D5C00001D5C0000B7
S2140040201D5C00001D5C00001D5C00001D5C0000A7
S2140040301D5C00001D5C00001D5C00001D5C000097
S2140040401D5C0000296E00001D5C0000C5660000B7
S2140040502D6E0000316E0000ED610000396E00002C
S2140040601D5C00001D5C00001D5C00001D5C000067
S2140040701D5C00001D5C00001D5C00001D5C000057
S2140040801D5C00001D5C00001D5C00001D5C000047
S2140040901D5C00001D5C00001D5C00001D5C000037
S2140040A01D5C00001D5C00001D5C0000A16100009E
S2140040B0356E00001D5C0000C54600001D5C00005B
S2140040C0714C00001D5C000010B5054C237833B918
S2140040D0044B13B10448AFF300800123237010BDD6
S2140040E0B000002000000000DCC0000008B5034B54
S2140040F01BB103490348AFF3008008BD0000000071
S214004100B4000020DCC00000154B002B08BF134B8A
S2140041109D46A3F5803A00218B460F461348144A65
S214004120121A06F083FC0F4B002B00D098470E4B5C
S214004130002B00D098470020002104000D000D48F9
S214004140002802D00C48AFF3008006F04BFC20009D
S214004150290004F009FC06F031FC00BF000008004E
S214004160007C00200000000000000000B0000020DE
S214004170A01B0020000000000000000037B5044629
S214004180684680E8060003C8251D85E805002373F9
S214004190069B2361BDF81C30A38200232360084BD6
S2140041A01A6812B91C6004E00A4611680029FBD19F
S2140041B014609888013080B2988003B030BD00BF8C
S2140041C03009002007B503790193054A0368009378
S2140041D006CA02230830FFF7D1FF03B05DF804FBE0
S2140041E0D0C000000A4B40F2011210B51A604FF022
S2140041F0FF329A6001225A6008441A46814202D170
S214004200D869C04310BD11F8014B9461F6E700BFB2
S21400421000C00140F8B5431E4F4E504F032B0AD83E
S214004220DFE803F002948A8F8022402506230724C5
S214004230002970D104E0002969D14FF400720823E8
S2140042403B4432669B001A68002AFCD15EE0736A23
S21400425013F0300F61D1736ADC0705D5726A22F05D
S214004260300242F0100272620324022304253A4A06
S2140042701566DA1992001368002BFCD03C44A400A3
S2140042802368002BFCD0022840D100293ED0324BB8
S2140042905A6A12F0010F1A4643D04FF48062C3F8F0
S2140042A0A82020225A665A6A12F0300F0CBF4FF42C
S2140042B040024FF40002D3F8901032EA0101FAD11E
S2140042C0520201D5D3F8A030234E00210220D6F8A2
S2140042D09C70FFF79FFFD6F89030726A204B22F052
S2140042E0300242F010027262C7F30A07316BFA0915
S2140042F003320F2A03EA010328BF0F223B4343EA97
S2140043000273336335662368002BFCD0F8BD09249E
S21400431008234FF480750021A9E70324022304250F
S214004320F9E7536AD2F8903003F44003B3F5400F30
S214004330F8D1D2F8A030C7E70125022200232C4688
S21400434076E7202210250423052471E700297FF450
S2140043507EAF0822022373E700400E408004F2106E
S21400436000F8FF0F70B540F62804E0B02368A3F508
S2140043700062B2F5605F05460E4615D21B6BA3F5CC
S2140043800062B2F5605F0FD25B6A4FF4C072694696
S2140043900020984730B923681B6B3246DB6A2946F3
S2140043A06846984760B070BD4FF40170FAE70000A9
S2140043B040F628020B461268A2F50061B1F5605F70
S2140043C010B40DD2126BA2F50061B1F5605F07D292
S2140043D01469064A0146A44600205DF8044B60476F
S2140043E04FF481705DF8044B704700BF80090020D1
S2140043F070B540F62805E0B02B68A3F50062B2F56C
S214004400605F04D34FF40174204660B070BD1B6B30
S214004410002BF7D05B6A4FF4C072694600209847BD
S21400442004460028F0D140F201262B68A3F500626E
S214004430B2F5605FE6D21B6BA3F50062B2F5605F73
S214004440E0D29B6A002168469847B042EDD040F221
S2140044500323984218BF0446D6E700000B4A536968
S21400446011699B0003F03C03C1F381110B43837079
S214004470136903F03F0343709369D26903F0F003B6
S214004480C2F3031213430370704700BFD0FF0FE060
S214004490304B1A6FD96CC90702F0070242D5012AC1
S2140044A040D9132851D9143813288CBF1023082359
S2140044B02849013BCA6C180322F47F4240EA0323D2
S2140044C01343CB64244BCA6C1B88C2F303222833E5
S2140044D0013202EB820003EB5303B3FBF0F3C86C2C
S2140044E0013B072B20F0EE6028BF072340F4801026
S2140044F040EA0363CB64194BB3F90030002B10DBA2
S2140045002833500800EB420203EB5303B3FBF2F3ED
S2140045100A6D072B28BF072322F0700242EA031316
S2140045200B657047DB6CD90706D4012A04D8092826
S2140045300BD90A380928B8E7064BDB6C13F00103E1
S214004540B6D0012A03D82728AFE70423B0E7002314
S214004550AEE700BF00300E404E0900205209002092
S214004560054A064B1B68136F23F007031843044BDA
S21400457010671888FFF78CBF00300E408009C643CE
S2140045804C09002000B962B6704700000A490B4B80
S21400459088425A680BD90A4988420AD902F0407103
S2140045A05A6822F0407242EA01625A60704700215F
S2140045B0F6E70121F4E700BF40787D0100000E40D9
S2140045C0005A620200F00F000138072848D8DFE8DA
S2140045D000F0040F1947232D4735244BD3F89430A9
S2140045E003F00703023B022B3CD8214AD05C7047FD
S2140045F01E4BD3F8803003F00703013B032B33D860
S2140046001C4AF3E7194BD3F8843003F00703013B49
S214004610032B29D8184AE9E7144BD3F8883003F05F
S2140046200703013B032B1FD8144ADFE70F4B1B6F12
S21400463013F0010F14BF0920072070470B4BD3F867
S2140046405C3103F03003202B06D0302B06D0102B25
S2140046500CBF0720012070470420704708207047D1
S21400466000207047052070470120704700400E402C
S21400467014AB000017AB00001BAB000017AB00002C
S2140046800C4B984210D90C4B984210D902220123A9
S2140046900A490B600A49D1F8003123F0807343EAD7
S2140046A00263C1F80031704700221346F0E701228A
S2140046B0FBE700BF0048E8010090D0034000C84375
S2140046C000400E40024B1A6FD96F0A409A67704737
S2140046D0003008400A490B4A4B6813F0070F07D111
S2140046E0136E2BB1084B1B6AC3F30C03013B8B61A3
S2140046F0064B80211960136823F04003136070474F
S21400470000000840C00F00200010084088400846FF
S214004710084BD3F8882012F0A00F0AD108229A601E
S214004720054B1B6913F4007F14BF044A044A022396
S2140047301360704700400840C00F00200040084645
S21400474000400844EFF3108072B6094B4FF0006249
S2140047501A6080221A6008221A6010221A604FF02F
S21400476080521A6040221A6020221A60FFF70ABFA1
S21400477000E100E0EFF3108072B6104B4FF00062DD
S214004780C3F880208022C3F880200222C3F880204D
S2140047900822C3F880201022C3F880204FF08052F1
S2140047A0C3F880204022C3F880202022C3F880204F
S2140047B04FF08042C3F88020FFF7E4BE00E100E03F
S2140047C010B5046884EA010323EA020200F180635C
S2140047D014401C6040F8042C00F1C0600A400260DF
S2140047E010BD00004DF804BDEFF3108072B6144BF8
S2140047F01978E9B9134BD3E900234FF0000C02F403
S214004800105B5BEA0C0313D10F4B10221A600D4BA2
S214004810D3E900234FF0000C02F4807B5BEA0C0324
S2140048200BD1094B5DF804BB20221A60FFF7AABE25
S214004830064B10221A600029E9D0044BF2E700BFAD
S2140048408C120020900D00209440084494400846A6
S2140048502DE9F041074616468846FFF7C3FF07F0E6
S214004860AA620023134348F2020108BF4FF4004136
S214004870B20748BF41F4005100224B48FFF7A0FFA3
S21400488007F400420023134307F480324FF000037E
S21400489014BF4FF480510021134307F010024FF06D
S2140048A0000318BF41F48071134307F020024FF055
S2140048B0000318BF41F40051134307F040024FF0C5
S2140048C0000318BF41F40071134307F080024FF055
S2140048D0000318BF41F48061134318BF41F4006120
S2140048E000223248FFF76CFF08F00403002213434F
S2140048F007F400624FF0000314BF4FF4802100213C
S214004900134307F480424FF0000318BF41F4803190
S214004910134307F002024FF0000318BF41F4801162
S21400492013434FF0000307F4003218BF41F40011A0
S214004930134318BF41F40021730748BF41F0040138
S21400494001221B48FFF73CFF1A4B1B491B4816F079
S214004950010F18BF194607F080420023134318BF03
S21400496041F000710022FFF72BFF07F00101002243
S2140049701348FFF725FF07F4802200231343114B4B
S2140049801149124807F004044FF0000518BF1946F5
S21400499054EA050318BF41F480614FF4A022BDE835
S2140049A0F041FFF70DBF00BF6C0008408C60084068
S2140049B020400840001C7000001870006850084036
S2140049C03C7008400D0A0A09090A0A09EC1008405A
S2140049D0044B00221A70044B197811B11A70FFF7B5
S2140049E001BF7047941600208C120020024B5868B6
S2140049F0C0F30360704700BF0040084008B5EFF3FF
S214004A00108172B6FFF7F2FF032806D1074A5368F3
S214004A1023F0F00343F0E0035360054B01225A6293
S214004A200846BDE80840FFF7ADBD00BF7C0F00217B
S214004A3000000840094B1B6830B5C517A3FB0001F2
S214004A4003FB051110F1807341F10004580E40EA93
S214004A50C410803820EAE07030BD00BF081800207F
S214004A602DE9D84802460C46002800F0A280C80768
S214004A7066D5D08A002800F09E80584B91681B6847
S214004A80C3F17F4303F57F0303F576433C335B1A9C
S214004A904FF47A7101FB0030FFF7CCFF504B1861E2
S214004AA0508A002800F08A804C4B91681B68C3F13E
S214004AB07F4303F57F0303F576433C335B1A4FF4DD
S214004AC07A7101FB0030FFF7B5FF454B9860908A7E
S214004AD0002876D0414B91681B68C3F17F4303F5ED
S214004AE07F0303F576433C335B1A4FF47A7101FB80
S214004AF000305368C01A3B4B1B68C717A3FB00BCAB
S214004B001BF1807003FB07CC4CF10001430E43EA17
S214004B10C113508B3249803BCB60002854D02F4BBA
S214004B201B68C3F17F4303F57F0303F576433C33ED
S214004B304FF47A7101FB0030FFF77CFF284BD861F9
S214004B40A1071BD5D3894FF47A70584323B1136855
S214004B5003F51C5310331844FFF76CFF204B986185
S214004B60108BA0B39368A3F50353103B4FF47A71F0
S214004B7001FB0030FFF75EFF194B5861630718D53D
S214004B80138A3BB34FF47A705843A0F5035010389D
S214004B90FFF750FF124C918920604FF47A7048431B
S214004BA021B1136803F51C5310331844FFF742FF76
S214004BB06060BDE8D88847F230506DE747F2305065
S214004BC081E747F2305096E747F23050B4E747F2B5
S214004BD03050CFE747F23050DAE700BF0418002025
S214004BE0900F00210818002038B5124D4FF400220F
S214004BF02A60114A1060114A1268D2B1104B114C4B
S214004C001B6F00F5F42000F59070B0FBF4F4033C45
S214004C10E4B203F00703A34202D02046FFF7A0FC4D
S214004C20094B1B782BB1094B4FF4702224041A60F1
S214004C302C6038BD94400846280000208009C643F2
S214004C4000300E4040420F005009002094400844B7
S214004C50064B5B6BC3F3C20203F0070002B150437E
S214004C60C3F3821303B15843704700BF00300840B7
S214004C7070470000064A1146536803F07063B3F1AC
S214004C80C06F02D1D36BDB06F6D540238B6070472E
S214004C90004008400D4BDB6C13F0200F0CBF0020CB
S214004CA00420D90648BF02301A0744BF0230C0B2FB
S214004CB0590744BF0230C0B29A0744BF0130C0B2A1
S214004CC0DB0744BF0130C0B2704700BF0000084099
S214004CD0044BD3F89430002BBCBF034BC3F88000C2
S214004CE0704700BF0040084000000840064B10B563
S214004CF01968064B1C684FF000420023E0FB0423B3
S214004D0001FB003010BD00BF9C1600209816002046
S214004D1070B5064C0546A069FFF7E8FF0646A06991
S214004D20FFF7E4FF801BA842F9D370BD005008408F
S214004D30F8B5084D084E094F04242C60D6F8883084
S214004D405B0300D4F8BD3C600220FFF7E1FF2C6057
S214004D50F4E700BF88400846004008408840084402
S214004D6011F0080F14BF1B4A1B4A082311F0010F4D
S214004D7010B54161136014BF164A174A01230C464A
S214004D801360FFF7D5FF14F0040F14BF134A144A3C
S214004D904FF400731360134B042214F0020F1A60D2
S214004DA014BF0C4A0C4A0223136014F0100F0E4B6B
S214004DB014BF00221B2214F0800FDA644FF4001395
S214004DC005D00A4A1360FFF719FE002010BD084AF6
S214004DD01360FAE744000846440008441C6008468E
S214004DE01C600844884008440000084018600846D4
S214004DF0186008442DE9F74F06460C461546EFF3B3
S214004E00108872B6DFF85891030199444FF4807702
S214004E104A4B01228740022DC9F800205F6604D164
S214004E204046FFF7AFFB012010E0D3F818A050462D
S214004E30FFF75CFF012D04BF01342418001BB0F1FE
S214004E40804F06D24046FFF79DFB002003B0BDE82A
S214004E50F08F3A4ADFF8FCC0106FD26E06F10903F5
S214004E6020F0E00002EA0C0C1902C0041B0622F037
S214004E70E00243F4803341F00101C00CD2048842C2
S214004E800CBF04200020D20C9C4508BF40F0020056
S214004E90914208BF40F0010010F0010E18BF284BE9
S214004EA0264918BF1C60274BD1F830C0D3F800B095
S214004EB04FF000420023E4FB0B23CDE90023224AF7
S214004EC0019B126802FB0434644501EB061306F1ED
S214004ED0070628BF644601EB0616C3F88040112378
S214004EE073608B69CA6DA4EB0A04A3EB0A0A5445E7
S214004EF096D83A4294D125B90123C9F800304F66B6
S214004F00A0E70F66BEF1000F08D0104B104941F61F
S214004F101F7240F201141A600C601A60820706D5F0
S214004F200A4B0B490B4A0C4C1A600C601A6043077C
S214004F3042BF0A4B01229A6072E700BF0050084049
S214004F4014010020941B0020981B00206C5008447D
S214004F506C50084600001F1F00000101004008407A
S214004F60745008441E491F4A30B54C881368B4F57F
S214004F70E16F114623F47F538CBF5A22C82223F0D8
S214004F8008038CBF50257825824226BF1C0A04F4ED
S214004F907F5443F6C87423431E280B604FF001036A
S214004FA008D91149A8420B608B6107D80F4B08221D
S214004FB01A6014E00E4A13609361F7E70D494DF648
S214004FC001730B608B610C4B824234BF4FF4574029
S214004FD04FF4504008221860986143F8702C30BD9A
S214004FE0A40D0020E00F0021084108469440084424
S214004FF008410844044108440441084608B5FFF740
S21400500027FE092818D80D4B01281B5C05D10C4B30
S2140050101B78012B14BF042344231809094900F008
S214005020070242EA00128A6003F00F0203F0070349
S21400503043EA02134B6008BDFA23EEE708C00000FF
S214005040A40D0020E00F0021084B09494FF48032E0
S214005050C3F8E8200A609A6BD1B2C2F307229967B8
S2140050609A6704229A6700229A67704700100840E1
S214005070EC10084610B4EFF3108072B60E4A0F49D3
S2140050800F4C01239365C2F8883000230B604C60F8
S21400509003244C620B490C800B495DF8044B0B80D3
S2140050A04FF4A021C2F8E81002F1C062EC321160A1
S2140050B0064A1360FFF766BA001008406010084002
S2140050C0D00000201201002010010020F40500206E
S2140050D0034B044A18601860034B12681A60FEE718
S2140050E02C000020180100203000002030B52F4A88
S2140050F085B010685168127A01AB03C32C491A7048
S21400510008682C4B2C499A6B096800FB0212196B35
S2140051102A4B1B68C9024CBFD218D21A284B1868F3
S21400512010B92B20FFF7D4FF04AB2649B2FBF1F1F0
S214005130194443F6FF5511F80B4C2349E240B2FBE5
S214005140F1F11944214B11F80B1C1D6002EB5003C2
S214005150B3FBF0F3013B43EA043343EA81231C49E3
S2140051600B601C49B2FBF1F301FB132264214A4396
S21400517019498A4298BF03F1FF335A08013A072AB1
S21400518006D801335B08013B072B01D812B90BB9CF
S2140051901020C7E71B0243EA02131049104A4FF4D7
S2140051A0EE600860136005B030BD00BFBCAA00000A
S2140051B01809002000300840200900201C090020A3
S2140051C02800002040BE4025401B5F13A440084432
S2140051D0A440084600F04902FFEF49023040084468
S2140051E030400846431E012B03D9031F584258413E
S2140051F070470120704770470F4B5B68C3F303632B
S214005200013B0B2B0DD8DFE803F014140614140C26
S21400521014080A0808080320704704207047052071
S2140052207047064BDB6813F0060F14BF04200120FE
S21400523070470220704700BF0040084000500840FA
S21400524003789A072DE93048014611D5C26A7AB12B
S2140052506FF34103037053691A68531C0AD01D4943
S214005260D1F83C311B0C1B0492B21343C1F83C31FD
S214005270BDE83088D0E91423002403F0040554EA7E
S214005280050304D1037843F002030370F0E7EFF35D
S214005290108072B60B69CA6803F480331A43CA607A
S2140052A0FFF770F900229BB90023D1E9144502EA02
S2140052B0040B03EA050C5BEA0C03D9D00648046825
S2140052C05A46A1F10C0063462146BDE8304808471F
S2140052D00423EAE7004008403400002038B1044BBD
S2140052E06FF0FF021A6003F10073104018607047F9
S2140052F0187008447047000047F6FF739A4270B56E
S21400530058D02D4B1B682BB12C4C246814B12C4D57
S2140053102D682DB92B4B2A221A602B4B1860FEE7FE
S21400532071B101290DD1062335F91310914218B237
S21400533002DC0130C0B270BD013BF5D11846F8E77B
S2140053401C46B4F90010914203DB20499142B8BFD5
S21400535011462822A1F1C80393FBF2F31C4A6468A5
S21400536015785B421BB29D42DCBF05F1FF331BB2D2
S2140053704FF47A7604EBC3020133508852681BB2AE
S21400538011FB002020EAE0709D4200F5FA70B0FBA9
S214005390F6F203DD34F833009042EBD203F100530B
S2140053A0013B34F83300904228BF1046002808BF5F
S2140053B00120BFE7FF20BEE7881B0020901B0020CF
S2140053C08C1B00202C00002030000020C880FFFF2F
S2140053D095160020094B30B5196C5C6C00222346EC
S2140053E042EA0104220C82701A0A210AC2701A0CC0
S2140053F01B0E047041700271437130BDB081E00F26
S214005400214BD3F8F82102401CD170B4D3F8FC51DC
S214005410D3F8006203F5FC74641BA410022C12D0AF
S214005420032C29D0012C1AD0184A52682A6005F19C
S2140054300C026860C3F8FC21A96033680C33336043
S21400544070BC70477047114A1C1D52682A6068601D
S21400545004221960C3F8FC41326070BC70470B4CE4
S2140054601A4664682C6042F8080B08205960C3F896
S214005470FC21306070BC7047044C6468A960C5E9C4
S2140054800040C3F8FC31E7E784180020001000E075
S214005490837DDB0701D5808A7047D0E901239B1AFC
S2140054A044BF828A9B1898B270470000044B5A6D1E
S2140054B022B95865A3F8581001207047002070479D
S2140054C0B8080020D0B50C4CE38C0A20584304F0F2
S2140054D0D9FF0646A08C0F4604F0D4FF0022074BE7
S2140054E005F03AF802460B463046394605F05EF9B6
S2140054F005F044FA2083D0BDB80800200000F43F31
S214005500084A10B5146840F2E243584303FB0141D1
S214005510536800F5807001EB50011844116050602C
S21400552010BD00BFB808002070B500228AB0134630
S214005530D91003F00704415C2141CC0741BF0AA9FA
S2140055408918013201F8283C0133252BF0D10E4D85
S2140055500023D91003F00704415C2141C90707D591
S214005560E91881F82A300133252BF2D10AB070BD34
S2140055700AAE93FBF2F102FB11313144EC1811F83C
S214005580286C84F82A60EEE7B8080020012810B5D9
S21400559014BF0124022420460CBF04212146FFF735
S2140055A021FE70B10120FFF71DFE50B1FFF724FE6B
S2140055B0420706D40D4B188A40F0807040EA04403B
S2140055C018610846FFF70EFE78B10120FFF70AFEC5
S2140055D058B1FFF711FE830707D4044A13691B0C62
S2140055E01B0443F480730B43136110BDC00F0020EF
S2140055F0024B986C80B28002704700BFB081E00F0B
S2140056007FB50E4B02466D4603F1100618685968C2
S2140056102C4603C40833B3422546F7D1531E04A9CB
S2140056200F3211F8014D13F8010F844204D1934252
S214005630F7D1012004B070BD0020FBE7C5AA00002A
S21400564070B51A4D286810BB194B1A4CE41A1A4B41
S2140056501C4424F4FF6424F00704FFF7C9FF8442C7
S21400566014D2666BA6B1FFF7C3FF864210D2FFF7CF
S214005670BFFF06F1380383420AD83046FFF7C0FF63
S21400568030B1F36933F0080302D02C60286870BD8F
S21400569004F1C8063046FFF7B3FF20B1D4F8E43073
S2140056A033F00803F1D104F50064D6E77C0300204C
S2140056B010000020B000002027C90000BFF34F8F65
S2140056C00549064BCA6802F4E0621343CB60BFF399
S2140056D04F8F00BFFDE700BF00ED00E00400FA05B5
S2140056E040F628031B68A3F50062B2F5605F07D298
S2140056F01B6BA3F50062B2F5605F01D2DB6B184747
S21400570040F20110704740F6280310B41B68A3F55A
S2140057100064B4F5605F09D21B6BA3F50064B4F5B2
S214005720605F03D29B6B5DF8044B184740F2011094
S2140057305DF8044B704740F628031B68A3F500622B
S214005740B2F5605F01D25B6A18470020704740F6EA
S21400575028031B68A3F50062B2F5605F01D21B6ADE
S21400576018474FF48170704740F628031B68A3F56E
S2140057700062B2F5605F01D2DB6918474FF48170B2
S2140057807047000028231A68B2F5006F0BD240F667
S21400579028031B68A3F50061B1F5605F03D21168AA
S2140057A0084A914203D0002303708360704719684B
S2140057B0054A9142F7D1012202709A6842609B69BD
S2140057C0F3E700BFAD1007B007B0CD5E10B50C46CE
S2140057D030B90448FFF7D6FF034B23600423A380A9
S2140057E0002010BDD0030020D403002010B508B35D
S2140057F0114B1A68918881421CD39988814281BFD7
S2140058000121126899809A6099889A6800242AB9BA
S21400581004B19A604FF6FF71998009E0884204D07F
S2140058200131126889B20124F1E70CB198809A60C0
S214005830104610BD0022FBE73809002037B50D469C
S2140058401446FFF7D3FFD8B10369828A63B14FF6D7
S214005850FE718A4208D100200090ADF80400694627
S214005860984738B103B030BD2B602280286848B90D
S2140058702080F7E7009B2B60BDF804302380F5E717
S2140058800120EFE70020EDE737B50D461446FFF799
S214005890ADFF70B1036973B1818A4FF6FE72914213
S2140058A009D10095ADF8044069460120984703B039
S2140058B030BD0120FBE70E20F9E700000B4BD3F8C4
S2140058C0942002F00702022A04D001D3042A0AD93F
S2140058D0074800E00748D3F80031C3F30423013338
S2140058E0B0FBF3F070474FF40040F4E700400E4082
S2140058F0C0EA210100F0490208B5FFF7DFFF044BBC
S214005900D3F81031C3F308230133B0FBF3F008BD1E
S21400591000400E4010B50446FFF7EEFF8C406411C1
S21400592042F210714C436423B0FBF3F0B4FBF0F08A
S21400593010BD00003E4B3F4A2DE9F047002814BF3B
S21400594080464FF00108C3F800803B4B9B69C3F3C9
S2140059508213062B0F46137063D0384B1B78022B2E
S21400596061D0012B0CBF3225B4255FFA85FA0821D9
S2140059705046FFF7CFFF4FF0030904260824804562
S2140059800ED052D93444E1B25046FFF7C3FFB9F106
S21400599001094FEA5606F2D1804538BF04F1FF34BC
S2140059A0254B2A04DA66264A40F6FF71116002F19A
S2140059B0007221021160D3F86C80D3F868905FFA09
S2140059C088F009F00F01FFF7A5FFC9F3031106469B
S2140059D0C8F30720FFF79EFFC9F303210644C8F368
S2140059E00740FFF797FFDFF854803044A8F804001C
S2140059F0FFF782FF05FA04F44FF4FA75114B6C4377
S214005A0041F66A05B0FBF5F0B4FBF0F40A20444317
S214005A10012138461C60FFF723F8B8F80400BDE8FB
S214005A20F0870025A1E796259FE738BFA41BAAE7C5
S214005A30A00D00203800002000600840A40D0020C3
S214005A406860084404180020026B10B55AB1136849
S214005A50022B08D9536A126AD8B25043C3F30723FD
S214005A60B0FBF3F010BD1E4B9C6904F03003202BF6
S214005A7023D1C4F3024018B1C4F3C421B1FBF0F043
S214005A8014F4C01F18BF40004108032928BF042192
S214005A90FFF732FF124B1A6B93B22BB1C2F30742D9
S214005AA0C0085043B0FBF3F3C4F30112012A0ED032
S214005AB0022A0ED003FB01F0D4E7C4F38213012BB5
S214005AC001D0042B01D10221E2E70121E0E75B08C7
S214005AD0F0E7C4F3C4220132B3FBF2F3EAE700BFF7
S214005AE00060084008B5FFF7E9FE044BD3F808311C
S214005AF0C3F308230133B0FBF3F008BD00400E40AB
S214005B00FFF7DCBE404B2DE9F74F93F800A03F4D62
S214005B1080460E4617469946BAF1000F3AD1FFF76F
S214005B2067FD3B4CA0F580502060FFF761FD394AC9
S214005B300123A0F5006060601360216801930431C2
S214005B400820FEF74FFB2268019B1268824208BFBE
S214005B502268616808BFD2F804B001F104014FF072
S214005B6008000CBF9A46D346FEF73CFB63681B68EA
S214005B70834205D163685B685B4506D8002305E071
S214005B80BAF1000FFAD1FF2300E001232B700123A6
S214005B9089F8003095F900305A1C05D1002038707D
S214005BA0306003B0BDE8F08F194ADFF86C9052F809
S214005BB023500C352C464FF6FF7AC4F30A030833FD
S214005BC0B3F5006FEAD2A3885345E7D0A079211D2C
S214005BD00430FEF707FB23688342E38802D1A288DD
S214005BE042450BD0DBB2033303F4FE7308331C4488
S214005BF085EA040313EA090FDFD0CFE708343B70C9
S214005C0001203460CDE700BF7C180020240000206F
S214005C10440900201416C84300F8FFFFFEE7000002
S214005C2037B50379124A03330446019300F144035F
S214005C30009306CA02231430FEF7A0FA228A0192C5
S214005C40E268237A009204F12C0094E80600FEF73E
S214005C5095FA237AA4F84500054684F8443022795C
S214005C60216804F1470004F0F8FE284603B030BD72
S214005C70C8C0000070B50E4C0E4B04F11C02064660
S214005C800D4692E80300243483E803001846FEF726
S214005C9099FA094B94E8030002221A7283E803007B
S214005CA0DE601D821846BDE87040FFF7B9BF00BF32
S214005CB0BCAA00001818002000070020042806D8F8
S214005CC00138032806D8DFE800F0020202020023AB
S214005CD01B78FFDE70470000B1F9122047F6FF730D
S214005CE09A4210B50BD0074B04791978064B186802
S214005CF0FFF702FBA04234BF0020012010BD0120A8
S214005D00FCE700BFA40D0020180100202DE9F0419B
S214005D10054616468846FFF7BBFBAB8A181A80B2C4
S214005D20864228BF064637465FB93EB1D5E90132FE
S214005D309A4202BFAB7D43F00103AB753046BDE827
S214005D40F081AB8A2C68A8681C44241AA3B2BB4214
S214005D508CBF3C46A4B22246414604F07EFEAB68A9
S214005D602968AA8A23440A44A0449342A7EB040461
S214005D70AB60A7B228BFA960D6E770B50446154643
S214005D801E4611B3FFF784FBA38A181A80B20128B7
S214005D9029D9E37D63B1E368628A1A70120A07D0D4
S214005DA02068A18A013301448B4228BF0346F4E7EA
S214005DB000236382A368E360022204F112012046F6
S214005DC0FFF7A4FFE37D0133E375324629462046FC
S214005DD0FFF79CFF638A03446382E37D13B9238A3B
S214005DE00344238270BD0020FCE700002DE9F0414B
S214005DF0DFF8348007460D4614460CB9BDE8F0813E
S214005E00EFF3108672B623462A4639464046FFF719
S214005E10B4FF03463046FEF7B5FB002BEDD0E41A80
S214005E20A4B21D440027E8E73C11002013B5002368
S214005E3001F10804ADF80430ADF8060021461A4614
S214005E40083151F8100C70B90BB1ADF804200422DB
S214005E500DEB020101200834FFF7C8FF54F8101CB0
S214005E6039B902B010BD51F80C3C1A4492B2012365
S214005E70E6E734F80C2C0020EDE700007FB50023A1
S214005E800130CDE90101CDE904336946044B0093A6
S214005E9004200392FFF7CAFF07B05DF804FB00BFBB
S214005EA0BE0300202DE9F041164605468846FFF75A
S214005EB0EFFA864228BF0646B6B237464FB92EB12D
S214005EC0AB7DDA0744BF23F00103AB753046BDE86F
S214005ED0F081AB8A2C6869681C44641AA3B2BB4282
S214005EE08CBF3C46A4B22246404604F0B6FD6B6822
S214005EF02968AA8A23440A44A0449342A7EB0404D0
S214005F006B60A7B228BF6960D8E770B51E46038AE3
S214005F1004461546EBB9C27DDAB10123013A0B708F
S214005F20C27500F110010222FFF7BCFFE37D9BB1B2
S214005F30228AB24228BF324629462046FFF7B2FFE1
S214005F40238A1B1A2382E37D13B9638A1B1A638292
S214005F5070BD00230B70EBE7638A2382E8E700003E
S214005F6070B50E46B0B9FFF76BFB0446FFF768FB4B
S214005F7060B1094D04F1C80304F5807418685968C7
S214005F802A4603C20833A3421546F7D1034B3360B3
S214005F900423B380002070BD80030020A0030020EF
S214005FA02DE9F3476E4BCDE9000117466AA1D1E90A
S214005FB000011E68DDE9002302400B40134300F099
S214005FC09880684BD3F89030DDE90023002302F078
S214005FD08052134309D0644B1B6903F07F43B3F12F
S214005FE0007F02BF614B02221A60DDE90023002316
S214005FF002F0C052134305D05D490868FFF76EF9FA
S21400600000230B60DDE90023002302F001021343A6
S2140060104FD0EFF3108072B65649DFF88081D1E991
S214006020002322F001041D46C1E90045524A5349A7
S214006030012313608B63FEF7A5FAEFF3108972B69F
S214006040FEF7D4FC8B689B09C3F3090A0246980541
S21400605048BF4AEA080AFEF7C9FC0238C0B201285F
S2140060600FFA8AFA6AD8931EDBB2012B8CBF002384
S21400607001234846FEF786FA1AF5007F60D1002B0A
S214006080DBD10120A6F812A000F032F9336A3C49B1
S21400609013F0800F14BF3B4A3B4A4FF400131360C3
S2140060A00868FFF71BF900230B60337B43F00803F7
S2140060B03373DDE90023002203F00403134318D0F2
S2140060C0DDE9004525F00405EFF3108072B6F369AC
S2140060D0B26903F001031A43B261FEF753FA0022D5
S2140060E0002B32D1002344EA020045EA0301CDE941
S2140060F00001D6E91723DDE9008908EA020809EA63
S214006100030958EA09030ED0204B42461968304668
S2140061104B4608F008040025884754EA05031EBFCE
S2140061201B4B00221A60FB0711D51A4A1368002081
S214006130106063B102B0BDE8F0471847002398E747
S214006140154A002B08BF92469BE70423CBE702B014
S214006150BDE8F087AFF300800100181804000000C7
S2140061601801002000500840C00F002000400846DC
S21400617010180020900D00203C7008440070084065
S2140061800C180020186008461860084434000020E8
S214006190F00500208018002000FEFFFF00FCFFFF37
S2140061A00F4A136BD16B0B4010B59363DB0715D505
S2140061B00C4BD3E90023002102F0010050EA010352
S2140061C002D11220FEF784FF074C01230022012093
S2140061D000212370FFF7E4FE0023237010BD00BFEC
S2140061E000700840900D0020541200200F4B10B590
S2140061F05C691A6A1440A2B2DA61E20706D5FEF7B5
S214006200F5FB014640F20510FFF7FAF863070CD5D8
S214006210074B084C1A680020012302F004020021F4
S2140062202370FFF7BDFE0023237010BD004008401A
S214006230880D0020541200200D4B1B782DE93048A5
S2140062409BB10C4B1C6DC4F30C0474B9FEF7C0FB79
S214006250094B0A4DD3E900BC224601230BF48050BB
S21400626000212B70FFF79CFE2C70BDE8308800BF25
S2140062709416002000100840900D002054120020B4
S21400628038B50546EFF3108472B6FEF7F3FE35B167
S214006290FEF79EFB2046BDE83840FEF773B9034B79
S2140062A01B78002BF6D1FFF7C7FFF3E75412002048
S2140062B038B50C4BD3F8EC5003F18063EC334FF455
S2140062C080641C60084B00201860FFF7D9FF074B5E
S2140062D04FF400521A606A0542BF03F10073983308
S2140062E01C6038BD00100840F0050020541008441B
S2140062F002282DE9F84F05D0032800F0AF800024CF
S214006300A04602E000244FF00108EFF3108972B6B1
S214006310554AFEF76BFB032804D1136803F00F03FE
S214006320032BF6D1B8F1000F28D04F4D4F4A2968FD
S214006330FEF75CFB01F00F03984208BFC1F303139E
S214006340032B01D0092B06D1D2F88C30DB03EED418
S214006350536F0C2BEBD9FEF7EBFC454B01221A6072
S21400636003F17E437C3304221A60FEF73FFB0028CD
S21400637076D13D4A536823F0F00353603D4DDFF875
S21400638020B1A0232B603C4BD3F8A42012F0010FC1
S2140063900AD03A4901220A604FF400615966CBF8E8
S2140063A000204FF480525A66334E354BF366002376
S2140063B03367FEF7BDFC334A2C4F136843F04003A7
S2140063C01360314BFF221A604FF48073BB600423C6
S2140063D02B60FEF713FB2220FEF77AFC4FF4802397
S2140063E073602023BB604FF0010A4FF48053CBF854
S2140063F000A07366B8F1000F25D02046FFF740FFD7
S214006400224BC3F800A0F4B1214BDA6E9A663B6AC1
S214006410FB61204BD3F88C20C3F88820A3F54053AB
S214006420DA6F9A67A3F50053D3F8EC20C3F8E82098
S21400643003F5C043DA6B9A63174B7366FEF7C8FA28
S2140064404FF47C432B604846FEF79CF813490868D7
S214006450FEF744FF00230B60BDE8F88F012452E7E7
S214006460FEF708FC81E700BF7C0F002100400840D3
S2140064700C4008468840084400500840A450084491
S21400648000000101C00F0020004008440C400844F2
S21400649000000840006008405000F002101800207D
S2140064A0B45008442DE9F8431F46C369012B06463D
S2140064B00D46914600F0D180FFF71EFA0446FEF71F
S2140064C0C7FB8046FEF798FE012806D00120FFF79E
S2140064D00FFFFEF791FE0128FBD1B9F80C30D9F872
S2140064E00410200BED1AD9F80830C0EB8040B0FB42
S2140064F0F8F0C0098342ADB281BFB3FBF0F00130C3
S214006500B3FBF0F41A1B8CBF05FB02111C463F2D93
S21400651082BFAA099B0103FB0211514B1A6888BF70
S21400652005F03F059142994605D14E4B1B689C42AB
S21400653001D1002F7DD0FEF78BFB8046FEF788FB4F
S21400654000285AD0484BB3FBF0F3994255D3474B3B
S214006550B3FBF0F0814250D8B8F1010F4FF01003B2
S2140065604ED1434A136008FB01F7C9F80010414AB0
S214006570DFF81C910023F804790B03F0B1FCC9F88E
S2140065802C00D9F830103B48C1F313014FEAC8423B
S2140065900023A1FB000103F0A3FC374B354A18602B
S2140065A0304BE0041C60A0FB0801630B08FB0311E2
S2140065B0002303F095FC314AC9F83C00137823B950
S2140065C0D9F8503003F03F0313702D4BD3F89430B6
S2140065D0590623D52B4BB7FBF3F340F24D5103FB83
S2140065E003F041434CF20C6000FB131303F5C91390
S2140065F003F555635BB92B2000E00E20FEF768FD1F
S214006600214A1360B8F1000FADD1022026E01178C0
S2140066101E4A4A43B2FBF3F31D4A1365FEF766FDB6
S214006620174BD3F83831DB0654BF1A481A48FEF722
S214006630DBFA3046FEF704FEFEF7D8F90428FBD056
S2140066400A28F9D008B10F20D8E7114B9D6303F54F
S214006650805380229A60FEF749FD0020BDE8F8834B
S214006660200900201809002000371789007DDAACC1
S2140066703841084400F049021C0900209C1B0020F9
S2140066800040084000366E01384108468096980063
S21400669000300840C0CF6A00E067350008B54FF408
S2140066A085700021FEF7ACFE054B002203201A6120
S2140066B0FFF71EFEFEF7A0FD0128FBD108BD00BFB8
S2140066C0A8160020914B2DE9F04F1E6EDA6E16408C
S2140066D09E6603F580538DB0D3F8E010D3F8EC2017
S2140066E001EA020AC3F8E8A003F5A043D3F8801035
S2140066F0D3F88C2001EA0209C3F88890A3F500536A
S21400670059691A6A01EA02084FEA18421204DA6165
S2140067107F4AD1680291D76D916E0F4027F48001B1
S21400672021F400615166002E4AD0320431D5D3F8E8
S21400673088307849A02003F4E0520A6008601020F0
S21400674041F8880C3AB3DD0428D45C0529D54FF40B
S2140067500014B0074FF0000509D56F4B6D49D3F80C
S214006760883003F460420A60F2B944F4801416F4E8
S214006770005618BF0226694B0AEA0303002B5DD0B9
S2140067801AF4206F1FD00020FFF77AFD0620FEF7D0
S2140067909FFC0024DDE74FF40024DAE74FF0007496
S2140067A0D7E74FF40004D4E7190402D544F0806418
S2140067B0DDE79A044CBF44F4800444F08074D6E7C6
S2140067C000240025D7E71AF0090008D0524B2022F3
S2140067D09A60A3F5405301229A620820D7E71AF080
S2140067E010630DD04C4B20229A604D4A0123C2F80C
S2140067F0B830FFF763FA0423C2F8B8300920C6E7BA
S2140068001AF4202F04D01846FFF73AFD0720BEE7FB
S2140068101AF4803F12D0434B4FF480321A60404B3C
S214006820C3F8E420D3F88020C2F30C023C2A05D833
S214006830D3F8E030DB0301D5FEF706FC1AF0040FB0
S21400684009D0394B1A684FF40053002A57D0374AFC
S21400685044F4802413601AF4806F18BF44F00404D4
S2140068601AF48023019375D03149324A0B88128876
S2140068701A44033AC2F38302009200982E4A043365
S21400688002EB800E9BB20B809EF802B02B494B6247
S2140068901BF0070303921DD19EF8032012F0810F10
S2140068A030D1274B0DF1100A59681868D446ACE869
S2140068B00300244908338B42E246F5D10CAB03EBC8
S2140068C0920212F8203C039A009902EB81014BEAEF
S2140068D003028A70042B03D10F494A681003FCD4C4
S2140068E0194A013BC2F800E0062B0DD8DFE813F08A
S2140068F030002501300028012B012E012E01134AFD
S2140069001360A8E70423DEE7032040E70000084002
S214006910005008408840084400400840090A0B0917
S21400692000100840EC100844B40402432410084445
S2140069301201002010010020D00000206010084046
S214006940E8AA000008AB0000F40500202410084662
S21400695044F40054B9F1000F1DD019F4805F18BF3D
S21400696044F4004419F4807F18BF44F4803419F4CA
S214006970005F18BF44F0100419F4007F18BF44F0FD
S214006980200419F4806F18BF44F0400419F4006F17
S21400699018BF44F08004B8F1000F2FD018F0007F25
S2140069A018BF46F0080618F0806F18BF46F01006AD
S2140069B018F0006F18BF46F0200618F4802F18BF96
S2140069C045F0040518F4803F18BF44F4006418F43A
S2140069D0801F18BF44F4804418F4001F18BF44F00A
S2140069E0020418F4002F09D0FEF700F8831EDBB26D
S2140069F0012B01D9072801D144F40034002F00F000
S214006A00C18039050DD59C4B9C4901221A609C4BD0
S214006A104FF4006241F61F705A6608605A660022FC
S214006A201A67BA0104D52B20FEF752F944F08044C9
S214006A3017F4E00F07D1FB0440F19980029B13F096
S214006A40060F00F03F81EFF3108172B617F4C00F07
S214006A5051D08C4A90688009C0F3090380058A48A3
S214006A604068D2F818C048BF6FEA83535FFA8CF2CA
S214006A7048BF6FEA93531CF0800F18BF62F0FF0206
S214006A80DFF8FCC112F1460FDCF85CC033DB13F50F
S214006A90007F30D0B3EB820F2DDC00F07063B3F1D3
S214006AA0806F02D010F0506F25D11CF4801F22D1C9
S214006AB02220FEF70DF9724B4FF480225A60DA6DF1
S214006AC0D00218D4704A01209060704ADA664FF4FB
S214006AD0E0025A66BA0207D55A6D12F0706F1EBFF2
S214006AE05A6D02F17F425A6527F4C0072C2047F4FE
S214006AF08017FEF7EDF80846FDF744FDB80204D50A
S214006B002920FEF7E5F844F00054790221D5604BC1
S214006B1001221A605A4A4FF4805353662720FEF724
S214006B20D7F85C4BA0211960102143F8881C4FF45D
S214006B308003536644F0805419E044F4806409E707
S214006B4044F4007406E744F4807403E744F0080451
S214006B5000E7FA0276D54E4B01221A60484B4FF4F6
S214006B6080525A662820FEF7B3F844F000647F058A
S214006B7008D5494B01221A60414B4FF480625A6691
S214006B8046F00106454B464FD3E9009A454B1A6836
S214006B9009EA0400012332400AEA05013B70FFF7C8
S214006BA0FFF900233B70019BF3B13F4C2368CBB148
S214006BB0D80715D4EFF3108572B63C4E3C4A3088A1
S214006BC000F03F0101F03C0E022B9644944640F044
S214006BD0F1802368002B40F0A9802846FDF7D2FC00
S214006BE000232360FFF728FBB8F1000F27D018F02A
S214006BF0007F12D0244BD3F83821D20600F1F08063
S214006C00D3F8002122F47F11520802F4FE120A4340
S214006C10C3F800214FF00072DA6118F0006F0ED052
S214006C20194BD3F8383113F0100F0CBF214A224A03
S214006C304FF400131360214B4FF000621A600DB042
S214006C40BDE8F08FFB0492D5114B0D4A0121196067
S214006C504FF4805353662220FEF73AF84FF4802311
S214006C605360D36D13F4A00F81D12A20FEF730F8BD
S214006C70134B99625EE700BFA45008446C5008446A
S214006C800050084000700840004008400000010125
S214006C90B45008448840084494500844900D00209E
S214006CA054120020880D0020F4050020100100205A
S214006CB0D000002000410844184108442040084401
S214006CC0001008404C4B01221A604C4B4FF4805188
S214006CD059664B490A604FF400625A66494ADA66BA
S214006CE0EFF3108972B6484B1B780BB1FDF786FEA2
S214006CF0464B1A6DFDF77AFE032802D0C2F30C034A
S214006D0023B1434B1A78434B1A7001234846FDF7CC
S214006D1039FC4BB9404A1370FDF764FD4FF48052BE
S214006D20002314431D4322E70022F9E723F0010362
S214006D30276827F001079F4240D1002222601A8868
S214006D406FEA42426FEA52429E451A8029D1334981
S214006D50DFF8D0C00A88ACF1400A02EB0009043A1A
S214006D6092B2181DA9EB0207604528BF5046042AB8
S214006D70BFB22ED80A8099781B88244801F00701F4
S214006D8007F07F07C3F30C030429C3633780C76685
S214006D90C0F8842005D1224B1B6803B19847FDF745
S214006DA069FF1A4BD3F8E030D9037FF516AFFEF72C
S214006DB04BF912E7012B08BF7346B9E75A1A174971
S214006DC00988B2EB0C0248BF403204399142B6DC67
S214006DD003E7B0F900E0BEF1000FCBDA0346BEE7EA
S214006DE0D3F8182122F47F11520802F4FE120A4347
S214006DF0C3F818210EE700BFB450084400500840FE
S214006E00A450084400000101141800200010084097
S214006E1015180020941600208C1200201201002065
S214006E20A416002010010020FFF74CBCFFF74ABC58
S214006E30FFF748BCFFF746BCFFF744BC2DE9F74F09
S214006E407A4E11464FF486701D461446FEF7D8FA61
S214006E503369B14633B94FF4837003B0BDE8F04FE1
S214006E60FEF7CEBA002D08BF082C40F0A980EFF33D
S214006E70108B72B66E4A6F4C16886F4924686F4D39
S214006E8006F03F0202F03C0008447CBB2C883444E9
S214006E90033C04F03C040C44A21A521A2D8848BF46
S214006EA04032954225DC5846FDF76CFB0024D9F8A5
S214006EB00430C9F814405B7A89F81830FB1F5F422B
S214006EC05F4199F81930A9F81AA067F3000389F80A
S214006ED01930019BC9F81C305949D9F810300220E6
S214006EE0984703B0BDE8F04FFFF7E2B924F001047D
S214006EF0D2E7A042534829D1C6681FFA86F801682F
S214006F0001F00701063101268E404F49D1F8801066
S214006F10C1F30C018A42B6B23DDA25882A04C2D4EF
S214006F20A778C5F30C05701EA5EB080507F0070744
S214006F3030432840052F85B212D9FDF7ABFE281A3C
S214006F4000B200280DDA0420FEF7C2F8251F8D4295
S214006F5038BF04F13C05B5F80080C8F30C08CEE74E
S214006F6028B21FFA80FA394A013E126808EA060675
S214006F70931958460193FDF705FB002C97D0002F78
S214006F8095D0082F93D0EFF3108072B6304B1C606C
S214006F90FDF7F8FA8BE78268701EA2EB080A30430A
S214006FA000EA0A001FFA80FAFDF720FDBAF1000F8A
S214006FB004D103280CBF08270027D4E70827D2E708
S214006FC0002D08BFB4F5002F05D10021012003B025
S214006FD0BDE8F04F184704F4C0520023134309D00D
S214006FE04FF480714FF48170FEF70AFA336900217E
S214006FF00320ECE704F440720023134309D0012178
S2140070004FF48170FEF7FCF9D9F810300021FF200C
S214007010DDE704F020720023134319BF012140F27C
S214007020011021464FF48370ECE700BFA81600203D
S21400703010010020F4050020D000002012010020DE
S214007040C01600203010084000100840CC00002079
S214007050F0050020F7B5464A536913B3022B1668AD
S2140070602BD8EFF3108072B6424A434FB2F800C0F6
S21400707042490CF03F0217D1414B1D683B882DB9A1
S2140070806344033B03F03C030B4401E025F001039B
S2140070909A1A521A398848BF4032914209DCFDF7E5
S2140070A071FA204603B0F0BD012BF1D102F03C038B
S2140070B0EAE7FDF767FA002BF3D01F889B783A04BF
S2140070C003F00703EDD4052BEBD9FDF7E3FDC4B2BF
S2140070D0002CE6D02B4A156805F00705AB1D0125E8
S2140070E09D40063F691EBFB2394057686D1AA4B26C
S2140070F047F00057A542394436D22A46684603F080
S214007100ACFC621B39460DEB050003F0A6FCDDF86F
S2140071100200FDF7EBFD346C4FF47A7304F5FA7455
S214007120B4FBF3F4041B06F10C00FEF78DFC164AC4
S214007130D36BC3F301111B0C01FB033342F2107136
S2140071408B42AED8D26902F01F0213440F4A03FBEB
S21400715002231422B0FBF2F213440A22B0FBF2F030
S214007160B3FBF0F3E41A9CE722466846CDE700BF7F
S214007170A81600201001002012010020D0000020D8
S214007180F40500203010084000600840A08601008A
S214007190F8B53C4C2278032A074602D0C820FDF7F3
S2140071A0E1FE2578384C032D03D1FF27277038469B
S2140071B0F8BD364B364A1B68012D02EA030214D18D
S2140071C0072F10D8012F08BF0227324B042142EAAE
S2140071D007621960BFB22D4BFFB21A60384627709F
S2140071E0FDF7C0FEE3E70727EFE742F47F5646F0D9
S2140071F00806002D40D1042F3FD901250423FF1A8D
S214007200254BD3F88811C94301F4FE1141F400510F
S214007210B1FA81F1C1F11301C1EB4111FFB2CBB25A
S214007220BB4228BF3B4603EB85070BB1013BDBB2F5
S2140072301F21B3FBF1F1C1EB41129A1AC9B24FF00C
S214007240FF331206013103FA01F102F18072C943DD
S214007250324342EA8132002F1049114B18BF4FF0DB
S2140072607F43C1F858314FF4800345B101F1C06146
S21400727001F584710B60AEE700252B46BFE7094990
S214007280F8E700BFA40D002025000020E00F002135
S2140072903F00C0E05841084400400E40004008400F
S2140072A00400000B0841084408B590F86830032B2A
S2140072B004D00846FFF76CFF002008BD0220FCE75C
S2140072C00C4B032210B51A605860EFF3108072B6AC
S2140072D0D3F8E020520758BF04224FF00004DC60C9
S2140072E0996058BFC3F8E820FDF74CF909B10222AF
S2140072F09A6210BD001008402DE9F843674BDFF88E
S214007300C8915E6804460F4600F134054FF0010848
S21400731017B13A68531C49D1FDF770FE604B614ABD
S2140073209B691278C3F382139A4204D05E4B2946B7
S2140073301868FEF7FFFA594B5B6823632046FEF792
S21400734083FB5A4B5A4A1B68216BC3F38123137085
S214007350584B1B68B142C3F3812353701FD0564A63
S21400736021B10B6813B1886800285DD1EFF3108057
S21400737072B6136823F007031360FDF703F90023C2
S214007380D3654E4A536000297DD1002319461A461C
S2140073906163C4E90E2307212846FDF761FB2378C5
S2140073A043F0020323700020BDE8F883C2F30260B6
S2140073B0C2F3074159F8200093B2012943EA0003BB
S2140073C00FD98A00D0193946A3EB070E0EEB010C35
S2140073D051F8043FCCF800308842F7D10432174405
S2140073E096E7120F78680837072A91D8DFE802F088
S2140073F00A0408110C0F1417C04303F1806301E060
S2140074001A685040186083E7FDF782FC80E708FAA8
S21400741000F003F1C063F5E708FA00F0EDE71A683C
S21400742030EA0202FBD173E7254B07261E60067979
S21400743082F85C60477997FAA7F3B3FA83F3202BB8
S21400744008BF4FF0FF335FFA83FC27FA0CF703F010
S2140074500F0343EA071382F85D30837982F85E30C3
S214007460C37982F85F3003681366164B01369E6157
S214007470EFF3108072B61668F34303F00703734009
S2140074801360FDF77FF80B68002B3FF47EAF0A69A8
S214007490002A3FF47AAF0ECA7AE700BFEC0F00214D
S2140074A00060084038000020A00D0020A000084022
S2140074B0990D0020A4000840C00F00201C100020DA
S2140074C004000844000008403CC000002DE9F04FCE
S2140074D0704E89B033680193D0E90A7543880293E9
S2140074E0019B4FF0000AAB428DF81FA00446894668
S2140074F08DF81EA003D113B1029B99424CD0002FE9
S21400750000F0BB80BB68002B00F0B780FB68002B48
S21400751000F0B380604B0393D3F800804FF0000B6D
S21400752018220123F968594518D9B96802FB0B1AC5
S214007530BAF80E10494534D8BAF81010494530D379
S2140075405146204605928DF81E300493FEF7C4FB84
S214007550DDE9043220B38DF81F305546A4F10C0344
S21400756004934E4B93F800B09DF81F30E3B1217999
S2140075702046FFF799FEB8F1000F5ED0B84534D12B
S214007580336893B3AB4230D1029B994519D1E5627B
S214007590A4F802904FF0000A504609B0BDE8F08FFC
S2140075A055460BF1010BBDE79DF81E30002B67D04A
S2140075B03B4BB5F9122019780498FDF79DFE01465D
S2140075C0D6E700232A4649462046FEF76BFF82464A
S2140075D00028DCD059462046FFF766FE00233268B6
S2140075E002992046FEF75EFFD6E7D8F8003023B3B0
S2140075F03A68934221D1D8F804102046FFF77CFE63
S214007600824600283FD129682046FFF775FE82464D
S214007610D0B9039BE5621F60A4F8029001232A46B6
S214007620494620463560FEF73DFF824660B91D4B51
S21400763004981B6829469847AEE739682046FFF746
S2140076405BFE82460028DED0039BC3F80080019BC9
S2140076503360B8F1000F04D0D8F800102046FFF7CA
S2140076604BFE59462046FFF71FFE3368002B93D08B
S21400767019682046FFF740FEB0E74FF0030A8BE795
S2140076804FF0010A88E7039BC3F80080019B336034
S214007690E2E700BF2809002024090020250000207A
S2140076A0A40D00203C0000202B4BD3F8883013F0AC
S2140076B0A00F70B54CD1FFF709FF0546002845D14D
S2140076C0264B274A27484FF44061196013789B02DF
S2140076D00360254B19605378244A9B021360FDF71C
S2140076E027FB234B23494FF480621A60A3F5FC5313
S2140076F0143B04221A600B689B0642BF1E4B4FF4D5
S21400770080721A600B6803F0A002A02A1ED11B4EDE
S21400771013F4001F336803F0070303F106004FF06D
S214007720010303FA00F3306A0CBF03220422C0F3FD
S2140077300C00013B82429BB20CD27468F068024493
S2140077401340234403F100531B788B60284670BD1A
S2140077500225FBE70325F9E700400840A00008449F
S214007760990D0020A0000846A4000844A40008467E
S2140077701C600844C00F00208840084600100840DF
S2140077800C4B0D4910B583620023C3624FF6FF749D
S214007790CA18D289944201D9144612B11833F02B74
S2140077A0F6D1064B002221461A60FFF78FFE2046D0
S2140077B010BD00BF58AE000068AE000024090020CF
S2140077C0F8B5304C256860602B7BDE072FD5066841
S2140077D0417A436893FAA3F32B4A1B0A13610123E9
S2140077E0936002F5804216F0010F1664D36B0CBF4F
S2140077F0AA27552723F00F03552F0CBF43F001038C
S21400780043F00203D363214A4423D36241F040018C
S2140078101F4B116307221A6003F1007301221A60DE
S2140078201C4A4FF48043136053609360D360238CEC
S214007830D9050BD5184E037A3178994206D0012B1C
S21400784005D0022B17D063681B7A3370F8BD2B7BEC
S214007850DA07F8D5FDF7D0FC0128F4D105F10C00C5
S214007860FFF78EFF2823A5F84E30022105F14000D1
S214007870FDF7F6F8E7E72B7BDB07E4D5FDF7BCFC66
S214007880E1E700BFA81600200020084000000840DE
S21400789034000844A00008442C0900202DE9F047D5
S2140078A0324C334F2646637A324D0133DBB2272BF8
S2140078B088BF252320466372FFF782FFB17B2E48E0
S2140078C096F80C800231FFF7FBFC6B682B4A5B7A5C
S2140078D008F00108404612F80390FDF757FED5F869
S2140078E00080494608F10C00FFF7DEFEB8B9B8F88C
S2140078F0561042F21073994298BF581AEFF3108A46
S21400790072B6DFF88480D8F8A430DB0704D4D8F841
S2140079100C3013F0060905D05046FCF733FEFEF790
S214007920BDFEC0E7FCF7D6FE154BC8F86C30154B0D
S214007930C8F8709008221A60134B4FF400610122B9
S2140079403A60596640F60141196701460320FDF783
S21400795051FA18B90B4B80221A60DDE75046FCF747
S21400796011FE0A4B2B61BDE8F08700BF1C03002008
S214007970A4500844A81600202903002012C00000C6
S21400798000000101884008440050084011800000B3
S21400799070B590F86830032B05460E4611D0297155
S2140079A0C16A81B1FEF798F930B9E862698828465D
S2140079B0FFF78CFD002070BD31462846FFF774FCAB
S2140079C0F8E70220F7E70846F5E70000144A154CEA
S2140079D008B5937E43F040039376134B00221A704B
S2140079E0124B1B78012573B1FDF7BEFE4FF0005316
S2140079F0A5600F4A1A60236823F4E06343F48063AB
S214007A002360FDF75BFE4FF00052A560136023680D
S214007A1023F4E06343F480632360FDF74FFE00BF6A
S214007A20B808002000500E4014090020C5030020AE
S214007A3002020FF010B5134CA37E5B0621D4FEF7AE
S214007A402DFE2168A38C40F2E24202FB0312226064
S214007A5094F84F10A27A25200A4492FBF0F100FB1E
S214007A601122A27222890132228162680A2101FB58
S214007A7003236360238B5A1E228313B90820FFF763
S214007A80A5FF10BDB80800202DE9F74FDFF880915C
S214007A90DFF880A1514C40F601002189FDF7B0FCCB
S214007AA0A37E13F04002254640F0948043F0010385
S214007AB003F0FD0362F38203494AA376136823B1F9
S214007AC021899288914200D19847A37A45481D445F
S214007AD095F82A306375FFF773FED4E90087424CA9
S214007AE0424A63685B7A0120D15C0191FDF74EFD46
S214007AF02568FDF781FB012805F10C0683460199F0
S214007B0004D0FEF7D5FBFFF795FFC3E73046FFF737
S214007B10DDFC0028F5D1B5F85010EFF3108572B6ED
S214007B20334ED6F8A42012F0010203D02846FCF704
S214007B3029FDE6E72F4BF3662F48304B32671A7065
S214007B40036823F0400303604FF40063C9F800B0F5
S214007B507F0873662A4BF366A8EB0703591A0320BF
S214007B60FDF748F90028E1D0D6F8A430DA0703D4A8
S214007B70244B5B685B04D9D5234B1D4E4FF0010B9D
S214007B8083F800B0FCF724FF4FF48053CAF800B027
S214007B907366F36E23F0F85323F4F81343F0506340
S214007BA043F4803308F16401F3660022394404206C
S214007BB0FDF720F938B94FF40063C9F800B07366D2
S214007BC00C4BF366B2E72846FCF7DCFCFEF770FBCE
S214007BD00E4B236103B0BDE8F08F00BFB80800204D
S214007BE058120020C4080020A816002012C000006A
S214007BF00050084000000101C00F002015180020AA
S214007C00010C010000400840141800206D7C0000A4
S214007C10A4500844B450084408B5024B9879FFF7BE
S214007C20D5FE00BF5812002010B5034CA01DFDF76E
S214007C307BFC0023236010BD5812002010B5094CB1
S214007C40B4F80710A079FDF75BFCA368064AB4F801
S214007C500D10D184C3F30F239384FDF733FC002368
S214007C60236010BD58120020B808002002282DE915
S214007C70F7430F460BD003D8012800F0AC81FEE78F
S214007C80032800F0B081FF2800F0AD81F7E74878C0
S214007C904E68B84D10F001045BD14FF0FF3140F64E
S214007CA00300FDF7ADFB2646AB7EB34C13F0200F6A
S214007CB012D0696D6FF34513AB76002900F09980FA
S214007CC0237895F85820627043F003032370A01CB5
S214007CD002F0C3FE00236B65A848FDF7D9FBAA7E19
S214007CE02378003018BF012060F34102C2F3001170
S214007CF0AA7661F38203C2F3C00262F3C30360F3A1
S214007D0004132370218840F60200FDF779FB6178A2
S214007D1099480231C9B2FFF7D3FAAB7E7C68D9071F
S214007D2009D56FF30003AB7600236B60FFF792F97B
S214007D302860FDF7C7FB4EB1237803F00303022B40
S214007D4000F031816DD8012B00F02C8103B0BDE826
S214007D50F083318840F60300FDF752FB3378A97EA6
S214007D6096F80080C3F3001363F38201A976C8F384
S214007D70C003C1F300118B4206D108F00303022BA7
S214007D8005D019D8012B31D00026344615E0A1467F
S214007D90767896B17A48848AFDF77AFB201A80B204
S214007DA0B9F1000F04D0022886BF023880B2002046
S214007DB086428CBF002401242646AB7EC8F380088A
S214007DC0C3F3C002904507D082F0010262F3C303FA
S214007DD0DBB243F02003AB76002C3FF465AFAB7EFE
S214007DE081F0010161F30413AB765DE74FF0000903
S214007DF0CEE795F828306148A21C0DF10701FEF782
S214007E0084F8C0B258B19DF80730002B0CBF012291
S214007E1002222378607062F3010323705CE701227C
S214007E20F7E7A378022B65D011D8002B4DD0012B95
S214007E3038D0544A127822B1162B7FD0182B00F077
S214007E408C805148072202704370022127E00C2BD9
S214007E5018D0142B56D0082BEBD14C4B54F8035F9C
S214007E60198CC8B205EA0002474801F47F4104466F
S214007E7042EA0105092104F8011B0023C0F801505D
S214007E8063600CE040484FF0FF32037001234370FC
S214007E908270037102220023C27043710621FDF72F
S214007EA005FB53E7617A237A394A43EA0123938034
S214007EB01346384943F8061B54F8031FC2F8061049
S214007EC0A2889A80A2799A7140E7627B237B304928
S214007ED043EA02238B800B462F4A43F8062B54F8BE
S214007EE0032FC1F8062062685A6022891A81A27A96
S214007EF09A722BE72A89264B05329A80274A1A60FF
S214007F00E278E0E7B4F80530B4F803201E48DB0852
S214007F10934228BF13462B85152300216FF00404D7
S214007F206FF0270203700723817081714470C2705E
S214007F3003714471C27103720921B0E72279E378B4
S214007F401148134003F00303022B18BF0123172226
S214007F500270437083700321A1E76279A1790C4B0C
S214007F6042EA01229A800E4A1A60D4F80320C3F827
S214007F700620EBE6B8080020881A00203C110020F6
S214007F8024100020551200206C120020A816002095
S214007F9058120020297C00003D7C0000197C00005F
S214007FA0F97F000000261248818AFDF771FA081A48
S214007FB0A51C80B2647826B1022886BF023880B23B
S214007FC00020A3B283423FF6C1AE2A463146084897
S214007FD0FDF7D3FEBAE6074B9B7E9A073FF5B6AE93
S214007FE05B073FF5B3AEFFF725FDFFF74DFDADE6AA
S214007FF024100020B8080020034B044A9979117514
S21400800000221A60704700BF58120020B8080020EF
S21400801002282DE9F0411FD002D8012807D0FEE73C
S214008020032800F09880FF2800F09580F7E74B4C77
S214008030237B980707D5FEF731FBFFF72FFC237B42
S2140080406FF341032373237B990701D4DA0764D4C3
S214008050BDE8F041FFF722BC4B784C68DB077AD5C9
S214008060227802F00F07032F59D0052F73D13C4911
S2140080708B7B03F00103B3EBD21F04F108004CD155
S2140080800622083102F0DAFC8046002845D1FEF7C9
S21400809005FBFEF7DFFF334D414606465C222846C9
S2140080A002F0C4FCAB7E2F8343F02003AB76627EE7
S2140080B0237E43EA0223AB84627F237F43EA0223C4
S2140080C0EB8494F82330C3F3040385F84F3094F818
S2140080D02330C3F3421385F8503004F11E001B23EF
S2140080E02B85FDF721FAD4F80E30E27CEB60A37CFA
S2140080F02E6043EA0223227D607D43EA02432B6121
S214008100012795F84F30AB722F75E18A3944FDF799
S214008110F7F9FFF7B9FC144B1F70BDE8F081104962
S2140081208B7B03F00103B3EBD21F04F10800F4D1FC
S2140081300622083102F082FC0028EED1074C94F8A3
S214008140361004F135000231FFF7BAF8237B43F00E
S21400815002032373E1E7FEF7A1FA79E71C03002088
S214008160A8160020B8080020140900202DE9F043C6
S21400817085B088466946044681E80C000C9EBDF82A
S2140081803470FDF733FB4FF6FE7905460DB14445D6
S21400819005D94FF6FF74204605B0BDE8F0832B7A6C
S2140081A09DF804209A421ED10099686802F046FCA9
S2140081B0C8B9002EEFD02B69AA8AA3B14A4509D1C7
S2140081C00290ADF80C0002A9984760B9029BBDF872
S2140081D00C2043B1974206D13A461946304602F083
S2140081E02DFC0028D7D001342D68A4B2CEE738B5D0
S2140081F00D4611462C68A41A2246014402F038FCAB
S2140082002C6038BD2DE9F0474A4E4B4B34684B4D39
S214008210A0EB04094A48C5F800901B1A49480344D5
S21400822023F4FF6323F007039945B04669D314444B
S214008230FDF7DEF94C44A0F58050844261D23068E8
S2140082401418B4F5806F03D93F4B82221A7056E09B
S2140082503E4F384402F001FC34603D4ED6F800A094
S214008260BAF1000F1BD1D72C49D93A4A07F1C803F7
S214008270D83753F8041B42F8041BBB42F9D13548E3
S214008280FDF7BEF910B9304B8422DFE71022FF213C
S214008290314802F0CBFB314A09F1C803136004F001
S2140082A003072F484C44E41B0440BAF1000F0BD1DF
S2140082B009EA0000C0F500612144FDF711FA3460B8
S2140082C048B1214B8522C1E7A24504D2A4EB0A019E
S2140082D00AF50060F1E7D8F800201C492868D21B90
S2140082E0FDF711FAD8F800202B681249D21B044675
S2140082F0134416482B60FFF77AFF002CE1D1BDE847
S214008300F087184B5B68B3F1827F0F4B0FD218785B
S2140083100A440024914203D1002CF0D01870EEE7F6
S21400832011F8015BFF2D1CBF01248320F2E7832296
S2140083308CE700BF90160020B00000209C0D0020A7
S2140083401000002027C90000850D00208D12002097
S214008350A016002078120020551300208812002056
S21400836000F8FFFFDC0300202DE9F04F01288BB05A
S21400837040F03D818A88002A00F03B819F4D95F8A9
S21400838000B0BBF1000F00F036819D4B1C7898467C
S2140083905CB99C48067882463EB99B4E30681718F2
S2140083A0B7F5806F05D982241C7020460BB0BDE857
S2140083B0F08FDFF870920968484402F04EFBBBF17C
S2140083C0020F37603AD0032FEFD9904F3846FDF7AB
S2140083D0D9F93B78D9F80020012B8D4B5FD19A4212
S2140083E05FD1BB68DB0365D502232B70FDF7BCF9B4
S2140083F040F628031B68A3F50062B2F5605F09D259
S2140084001B6BA3F50062B2F5605F03D29B6803A9FD
S2140084100020984703987F4B7F4A186020F4FF633C
S21400842023F007034FF400611360FDF759F988BB8A
S214008430FDF706F940BB2B78022BB6D17749784F6B
S21400844008783A68336810F0F70F894640F0A58040
S21400845070490D681D4403F0030B15446E4B0193E1
S214008460A5EB0B0525F4FF65186825F00705854282
S21400847023D9291A00F50060FDF732F9019BD8B11F
S214008480852488F8004090E74FF40061FDF728F94E
S2140084900028D0D0852388F800301C4685E79A420D
S2140084A008D0842388F8003098F80030002B3FF47A
S2140084B07CAFF0E78623F5E71D6031683868A1EBEE
S2140084C00B01FBF775FF32683B684F49A2EB0B02C6
S2140084D00546134453483B60FFF789FE002DCFD175
S2140084E099F80030002B7FF460AF3B687F2B7FF756
S2140084F05CAF02A903A8FBF735FF10B9039B89F808
S214008500003099F8003013F0F70F3FF44EAF40F606
S21400851028053B682A68A2F50061B1F5605FAFD216
S214008520126BA2F50061B1F5605FA9D20021D2F806
S2140085300C903C4A0846C8470028A1D13B683360E7
S214008540354B394F1860394B7B602B68A3F50062BA
S214008550B2F5605F94D29B6A35484FF40071984735
S21400856000288DD12A683368A2F50061B1F5605FF6
S2140085703AD2D56A2E482B4A3946A847054632686D
S21400858021492848FFF733FE40F203239D421DD0C1
S21400859040F201239D4225D107E71A443A6040F68F
S2140085A028021268A2F50061B1F5605F12D2D56AA2
S2140085B01D491C4A1E48A8470546326812491948F4
S2140085C0FFF715FE40F203239D4206D101238AF8E9
S2140085D00030EAE640F20225EFE740F201239D4232
S2140085E03FF47EAF80244CE740F20225C7E7002424
S2140085F0DBE60D24D9E68124D7E600BF860D0020F1
S214008600850D0020840D0020800D0020DC03002056
S214008610EB17A60378180020A0160020B803002049
S214008620AC0D002080090020B00D0020058200005F
S214008630C00D002001282DE9F34740F029818B88E2
S214008640012B40F027810B681B7813BB934A944C90
S2140086501360944A1360944A1360944A1360944AD1
S2140086601360944A1370944A1360944A13602278F5
S214008670022A01D1FDF76BF801232370904B0024EA
S2140086801C70904B1C70904B1C70204602B0BDE8CE
S214008690F087032B40F0E9808B4B814E1C78002C32
S2140086A049D13378002B00F0D880824B1B78082BFA
S2140086B075D17A4A1368904683B940F628052B6828
S2140086C0A3F50063B3F5605F50D34FF4017041F239
S2140086D00803984200F0C38080242CE013F00307C0
S2140086E01ABFC7F10407FFB2274603EB070ABAF51D
S2140086F0806F00F2B88075483A461844FF2102F0B1
S21400870095F96D4B674AC8F800A015681A681544B5
S2140087105544DFF89CA125F4FF65DAF8000025F043
S2140087200705854299460BD9291A00F50060FCF723
S214008730D7FF18B1852400233370A6E7CAF8005087
S214008740D8F80010D9F80000FBF732FED9F8003050
S214008750D8F80020514913440546DF1B5B48C9F88A
S2140087600070FFF744FD002DA7D0E3E7FBF740FEBF
S2140087700028ACD12B680190A3F50062B2F5605FCB
S21400878009D21B6BA3F50062B2F5605F03D29B694A
S214008790012101A898474B4B01221A70CBE7002B0A
S2140087A05FD0474B1B78002B96D0444F3B6843B9AD
S2140087B03E4B474918681022FCF7A5FF0028BAD0A0
S2140087C0B8E713F003021CBFC2F10402D2B29D1830
S2140087D0B5F5806F47D83F48FF21184402F026F9C8
S2140087E03D4A3E4B30483E493D609B1A3D4A134445
S2140087F002680B409342804601D983249BE71544C8
S214008800FCF7F6FEA0F580508542F6D23D68DFF80C
S214008810A0902A44D9F8000002EA0105854208D94A
S214008820291A00F50060FCF75BFF002882D1C9F822
S21400883000503A682749D8F80000FCF764FFD8F8DB
S21400884000303A681D49054613442248C8F80030EF
S214008850FFF7CDFC002DABD06CE781246BE78624B8
S21400886069E7842467E7822465E7042B14D11E4C4D
S21400887013230221637020462170FCF717FE1B4A63
S2140088801B4B128905329A801A4A1A6062789A71CE
S2140088900024FAE60D24F8E60624F6E6800D00200D
S2140088A0860D0020781800209C0D002088120020DD
S2140088B0A0160020B8030020AC0D00209016002063
S2140088C0840D0020C5030020850D002080090020AF
S2140088D0781200208D12002010000020B00000202A
S2140088E000F8FFFF27C900006C120020B80800201F
S2140088F058120020197C0000134A144908B5D2F813
S214008900883043F47003C2F88830114B5A6D42F435
S21400891000525A651A6C22F003021A640D4A136854
S21400892023F00103136052F8143C23F0805342F8FE
S214008930143C094B094A8B4201D3FBF7E5FB52F87E
S214008940040F43F8040BF6E700ED00E0B00000204B
S21400895000300E4074300E4010000020E4C00000CE
S214008960FEE70000000000002DE98048914B5B68A0
S214008970A5B013F4806F1CAE2FD14FF00053002229
S2140089801A603046FCF7FEFEFCF75AFE054660BB52
S214008990894CE56C30462D0EFBF760FD8E2D60D8B9
S2140089A08649D1F8B00040F00403C1F8B030844BDB
S2140089B04FF050121A601A631A66C3F89020C3F874
S2140089C0C020C3F8F020C1F8B0007C4AD36A23F078
S2140089D07F0343F02003D36245E04FF000531A684C
S2140089E0022ACAD100221A60D2E79DF87030012B05
S2140089F031D1446BFCF7B8FE1E9B580714D5FCF724
S214008A001FFEFCF798FE0446FCF7A1FE002CBFD024
S214008A10FCF716FE0446FCF713FE6A4B98602368C4
S214008A209D4663689847B3E784B1FCF7E1FD84424E
S214008A300CD2FCF7DDFD04F13803834206D86369E7
S214008A4023B12046FCF7DCFD0028D8D105F1C8008C
S214008A50FCF7D6FDD7E7C830FCF7D2FD002897D044
S214008A60D6E78F2DB1D99DF87130574D012B01BF38
S214008A70564A136843F00403136000232B60544BDC
S214008A8002229A639B6B03F00F03934240F0198116
S214008A90D4F86C3101331DD04E4B1A68043B1B686A
S214008AA01A604D4B1A68043B1B681A604B4B1A68D9
S214008AB0043B1B681A604A4B1A68043B1B681A6022
S214008AC0484B1A68043B1B681A60474B1A68043BFD
S214008AD01B681A603E4FFB6C23F0405323F00103E3
S214008AE043F00103FB64FB6E43F08073FB663F4B71
S214008AF0186800B10420FBF733FD3B6E23F0C0433B
S214008B003B66FB6C43F006033046FB64FBF7A6FCB3
S214008B109DF87100012812D19DF87030022B0ED8F6
S214008B2033490B785BB9334A136843F0010313608B
S214008B303B6E314A1A40314B13433B660870304B4C
S214008B40C8221A802F4BA0221A802F4B0F20188085
S214008B50FBF79EFC1E482D4B8365D4F86811C06C4D
S214008B60C0F30170020240F201139A42C1F30727D4
S214008B70C9B200F0DC82B2F5817F0BD2012A47D061
S214008B80C0F0DF82B2F5807F00F0DE824FF0000C8E
S214008B90634642E040F201239A4200F0CF82B2F5EB
S214008BA0407F00F0D482B2F5007FEFD1D4F8703168
S214008BB030E000BF00500E40B081E00F00400E4095
S214008BC000A0004000ED00E0B40AC64364310E4049
S214008BD000300E403C80E00F4480E00F4C80E00FF9
S214008BE05480E00F5C80E00F6480E00F8009C6438D
S214008BF0980D002044300E40000F0EF0B4C0400B1D
S214008C004E090020520900204C09002077402057CA
S214008C10D4F87431C3F3072CDBB24FF4167E7A1AFD
S214008C200EFB02F2B2FBFEF20A449742ACEB0301E3
S214008C300EFB01F1B1FBFEF1194442D3614540D869
S214008C40B44FFB6D23F4FE4323F0020343EA0223F2
S214008C50FB65236DDBB2032B00F27C82D4F87C31FB
S214008C60DBB21B0313F4702F2BD1AA4AD06E20F46C
S214008C7070400343D366506EE72920F4FF700B461E
S214008C8020F0010028BFE72340EA4300A24B5066CD
S214008C9001211960936FD907FCD4136C13F00303FA
S214008CA00ED001232B609B4B19469A6FD207FCD43B
S214008CB01A6C22F003021A648B6F13F00103FBD1C7
S214008CC02B60964F964D1120FBF77CFC002102206E
S214008CD0FBF7A0FA7B6A934823F001037B62924B72
S214008CE04FF00008C3F80080BA6A904B22F00702E3
S214008CF042F00602BA62FB623A6B8D4B02F07F626C
S214008D0013433B638B4B7B63FBF7BAFC01210220CA
S214008D10FBF780FA41F67133D5F8409086482B640D
S214008D20FBF734FC3B46B9F1000F01D0C5F8408094
S214008D3002225A67FCF7E4FEFBF7A2FCFCF7D2FE21
S214008D402F6C41F671332B64FBF720FC0FB1002328
S214008D502B64DFF8CC81714D77486F6AD8F8409065
S214008D6041F67133C8F8403047F04057FBF70EFC29
S214008D70B9F1000F02D00023C8F840306E48FBF768
S214008D807FFC6F62D5F8C83043F00103C5F8C830E1
S214008D906A4DA36AAB6506AA08A93520FCF7B2FEA1
S214008DA02B4630B19DF81820042A06BF089A106892
S214008DB00020C70340F1DF819A6D8DF828209A6D58
S214008DC08DF829209A6D8DF82A209A6D8DF82B2023
S214008DD09A6D8DF82C209B6D43F060038DF82D3036
S214008DE09DF82E3043F001038DF82E30544B0AAA1E
S214008DF05A60544B544A9A6000214FF48070C3E97D
S214008E00002258611982514A514B524D9A60C3E96B
S214008E10002258611982504B296208221A704F4B63
S214008E204F4A1A604F4B504A1A60504B504A1A60CD
S214008E30504A6A60504A514B1560514A2B60136085
S214008E402B6B504A85F86C108B4208BF13464E4A6F
S214008E50E96313604FF06413C5E91433C5E91631AE
S214008E604FF6FF73E9642966AB821120FBF7AAFB75
S214008E70042840F0F383294B40F2FD12C3F8C820C3
S214008E803046FBF7EBFA414B414AC3F8442148F21F
S214008E90E672C3F838214FF40862C3F834213D4A1D
S214008EA0C3F8A0209DF87130012B3B4B05D19DF8EF
S214008EB07020012A9CBF28221A654AF63F429A6013
S214008EC0364B3249DFF8E880354F4FF0C0729A6271
S214008ED00023C1F8FC30334BC1F89C30324B7F2264
S214008EE01A6003F1007323221A6003F541533433EA
S214008EF003221A602D4A4FF40023C1F894304FF035
S214008F0001094023C2F8009013604FF46073C8F85C
S214008F1000304FE000300E409407C64300400E403D
S214008F2000000E400148E801A004C84320000500E8
S214008F3007AD0AD047A0020000F0490200500840E2
S214008F40C80300203C110020541100203C100020D3
S214008F5024100020D816002095160020881B00201C
S214008F60D0AF0000901B0020E8AF00008C1B002054
S214008F70D8AF0000CC160020180100203D6E00007F
S214008F8034000020F75100003C000020004008405C
S214008F90C0E653517A27000F0030084000700840A2
S214008FA018600846806D63032430084494400846E1
S214008FB00C4008464FF400133B60FBF7DBFBC8F899
S214008FC0009088460297FBF711FD81460028FAD1EB
S214008FD04FF004570123C8F87C704FF47762C8F846
S214008FE080307749384601F038FD764BC8F8603057
S214008FF0DFF8208298E8070086E8070084224946C2
S214009000714801F013FD96E80700704E88E80700E7
S2140090106F4938464FF6CE278388BB4211D1B0F948
S2140090200230002B0DDA13F1640F0ADB028822F4FB
S214009030E062B2F5404F04D133441A0C828043807C
S214009040043002308842E7D9624B0022C3F88820F9
S214009050C3F88C20C3F89020626D2368D2B2FF2A32
S21400906043F3074301D05E1C01D1902219235649D1
S214009070DFF8A4B1022093FBF0F342FA83F3CB743B
S21400908023234B74544B88744FF603721A6003F113
S21400909000734FF0000A514AC3F800A04FF0804317
S2140090A013604F4B4F4A1A604F4B03221A804F4BA8
S2140090B04F4AA3F800A04F4BC3F800A05A604FF4E5
S2140090C000525A624C4BF0221A6003F10073A02241
S2140090D01A604A4B0122C3F8B820FBF7CBFF484B77
S2140090E001221A60474BCBF80030FCF705FC4FF422
S2140090F0FA6303904FF47A79B0FBF9F84248434A92
S21400910003FB08F31E0280194FEA13674FF00001B5
S2140091104FF00003794100F0E3FEA0F580730646A9
S214009120CBF82830002879D12B20FBF7D1FFD4F8D4
S21400913074314FEA136CC3F307436EE5D4F8783105
S21400914068E5D4F86C3165E5D4F86C31F1E7D4F80D
S2140091507031EEE70228D4F8803107D0032808D013
S21400916001287FF47DADC3F307237AE5C3F30743F5
S21400917077E51B0E75E50DF1170208A92C20FCF704
S214009180C1FC00283FF435AE0AAD9DF817200899BB
S214009190284601F062FC0DF1170208A93C20FCF7F6
S2140091A0B1FC9DF82E3040B1089A127862F30003A5
S2140091B08DF82E30164B5D601BE660F30003F7E774
S2140091C000B00000B80F00217C0F00212410002002
S2140091D06B0F0021004008407C000844944008467D
S2140091E0A4160020114700001201002010010020E4
S2140091F078170020901008404000084400100840EF
S2140092000C4008440011010020A1070040420F0056
S214009210C8030020E00F00210050084009FB00F2C0
S21400922057084FEA08231AEB0700194641F10001D8
S214009230534600F055FEC24B1960C24B07461860F5
S2140092403006360AB8F1000F3FF46EAFA0FB0923D4
S21400925009FB0633104619464FF4FA62039BB3FB2C
S214009260F2F680194246534641F1000100F038FEFE
S214009270B54BDFF858831960B44B1860B44B4FF009
S2140092808052013FCBF830704FF00709C3F88021B9
S2140092901A600123CBF80430C8F88490FCF72CFB46
S2140092A0C308070BAB48AC4ADE0580194FF0000137
S2140092B07941002300F014FEA84B18604EF660209B
S2140092C0FBF7B8FBA64B40421862A64B4946A3F1F3
S2140092D06000FBF7C5FBA44BCBF87430A349A44A47
S2140092E0A3F52003CBF884304FF4002381F800A0C8
S2140092F01360A04BD3F8C82042F0CC0082428A46C6
S21400930040F0A881D8F80C20D00700F1A381D3F84C
S2140093101031C3F30823002B40F09C81EFF3108C30
S21400932072B6954B954E9F690298A3F5C0434FF0D1
S2140093306052D3F884E032604FF00062026024226C
S214009340C3F884208E4A042010604FF480429A6648
S2140093504FF480525A621A6E5104FCD51A68D20530
S214009360F9D54FF48040DFF8688298664FF004091C
S214009370D3F888200299C8F80090C3F884E04FF02C
S214009380605E07EA0E07C6F800E00F609866604663
S21400939092B2FBF7F7F84FF604004FF60503824249
S2140093A008BF1A46774B9A6501238AF80030764B39
S2140093B01868FBF719FC48220021744801F036FBB8
S2140093C0734B60225A64734A062111600022C3F868
S2140093D08420714B4FF080521A60704B1B6A13F05A
S2140093E0800F4FF4001300F03781029A13604FF499
S2140093F0001333604FF060533360694B694840F6A2
S214009400FF765E625E6503F1C063A3F6BC736022FE
S2140094101A60654B40221A60296AFBF7A1FCFBF72D
S214009420A9F9624BD3E9000140F0C05741F00408A7
S214009430C3E900785E4B41461A683846FBF708FADF
S214009440FBF780F95B4B5C4A1A605C4B03211960A2
S2140094505A605E62514B5A4E544F336034A1D1E984
S2140094600001C3E9170103F10C05FBF783F9D7E9FF
S214009470002331A1D1E900014D4B02F0010A4FF063
S214009480000B40EA0A0841EA0B091A6840464946BA
S214009490C7E90089FBF7DCF9FBF754F92846FBF728
S2140094A0CFFE306802210C30FBF75AFC306894235C
S2140094B09622A0F8583000276423A0F85420A0F87D
S2140094C05630A0F85030C76407214030FBF7C8FA82
S2140094D0356805F10C00FEF753F92823A5F84E3041
S2140094E005F140000221FBF7BBFA214A4FF000636A
S2140094F013602B7B334A43F001032B735368324DC2
S21400950023F00F0343F003035360636A13F0010F65
S21400951018BF2F703768002107F10C00FEF738FAE5
S214009520144940F2FD13C1F8C83053E0AFF3008091
S214009530081B880200000000081B881A04000000B0
S214009540981B0020941B00209C16002098160020D4
S21400955000E100E0B2E60E0065CD1D000818002010
S214009560900F0021781700200300C000500900204B
S2140095709440084600400E400060084018600844CA
S214009580004008460050084028000020D40F002065
S214009590000008407000084494400844D816002094
S2140095A000100840E416002088400844900D002073
S2140095B0880D0020CC0000201C0100203010084040
S2140095C0A81600207C0F0021420000200040084022
S2140095D000400844294B0022C3E900229A602A78FA
S2140095E0D1F88831022A07F14008254F38D113F404
S2140095F0001F4BD12B683B60AB88BB800020FDF77B
S214009600C7FD4146A888FCF795F91C4B3A781B68BD
S214009610022A23F0804323F0170340F09781194A6B
S2140096204FF4EE41116002F100724FF48A4111606E
S21400963043F08043012143F0200342F8041C0F4A04
S21400964000201360FDF7A4FD0F4B03221A60FBF702
S214009650D5FC20E0142068E53360C8E60B46FAE641
S214009660012A02D113F4400FC3E77AB9626AD243E3
S21400967002F0010203F480031343BAE7E00F00216F
S214009680A40D0020244108445841084403233B709D
S214009690BC4BFF221A70BC4C2978B4F90020306805
S2140096A0DFF8A493FBF728FE3368014603F10C00AD
S2140096B0FEF76EF96468002C40F0DE814846FBF742
S2140096C089FEB37B64F30003B373B04AB04CB14F6A
S2140096D0B14D20233384002182F8013304F10A00BF
S2140096E082F8033382F8053382F8063382F80433AF
S2140096F082F8073382F81C33562201F097F9A74800
S214009700A74BC4E9000325236372012323720023B9
S2140097103B600DF116021B2307A936202B80FCF7B1
S214009720F1F90DF1150208A93920FCF7EBF90DF156
S214009730700A002800F0A9819DF815200899202AB3
S21400974028BF202250468DF8152001F086F905AA7C
S21400975008A93A20FCF7D6F9002800F0D9819DF830
S21400976014200899202A28BF202214A88DF8142037
S21400977001F073F9DFF8D4828A4800234FF0020B19
S214009780C8E90033884B036080F804B0FAF71AFD86
S2140097908648874B036080F804B010230372FCF7FA
S2140097A03FFA8448844B0360844B80F804B0C3605F
S2140097B080F808B0A0F810B0CDE9003B5B4690E812
S2140097C006001430FAF7DAFC0798CDF8088000286F
S2140097D000F0A9819DF81610FCF74CFA7848794BF2
S2140097E003604FF0100880F80480FAF7EBFC764828
S2140097F0764A774B03604FF6FE7B0823C260A0F8DC
S21400980010B080F8048003720393FCF709FA7148DD
S214009810714A02600C220272704AC260A0F810B050
S21400982080F80480FCF7FCF96D486E4A039B0260E2
S2140098304FF0020B6C4A80F80480C260038280F806
S21400984008B0FCF7EDF96948694B0360694BC360E3
S21400985080F804800123038280F808B0FCF7E0F962
S2140098606548664B0360664BC3604FF6FE73038223
S21400987080F8048080F808B0FCF7D2F96148624BA3
S2140098800360624BC3604FF6FE73038280F8048069
S21400989080F808B0FCF7C4F95D4B029A1A604FF6E0
S2140098A0FF729A809DF81520202A05D8931DA37371
S2140098B05146584801F0D1F89DF81420202A06D8C1
S2140098C0931D84F8363014A9534801F0C6F8FCF707
